{
  "contractName": "TournamentScore",
  "abi": [
    {
      "anonymous": false,
      "inputs": [
        {
          "indexed": false,
          "internalType": "string",
          "name": "name",
          "type": "string"
        },
        {
          "indexed": false,
          "internalType": "uint256",
          "name": "score",
          "type": "uint256"
        }
      ],
      "name": "PlayerAdded",
      "type": "event"
    },
    {
      "anonymous": false,
      "inputs": [
        {
          "indexed": false,
          "internalType": "string",
          "name": "winner",
          "type": "string"
        }
      ],
      "name": "TournamentWinner",
      "type": "event"
    },
    {
      "inputs": [
        {
          "internalType": "uint256",
          "name": "",
          "type": "uint256"
        }
      ],
      "name": "players",
      "outputs": [
        {
          "internalType": "string",
          "name": "name",
          "type": "string"
        },
        {
          "internalType": "uint256",
          "name": "score",
          "type": "uint256"
        }
      ],
      "stateMutability": "view",
      "type": "function"
    },
    {
      "inputs": [
        {
          "internalType": "string",
          "name": "",
          "type": "string"
        }
      ],
      "name": "tournamentWins",
      "outputs": [
        {
          "internalType": "uint256",
          "name": "",
          "type": "uint256"
        }
      ],
      "stateMutability": "view",
      "type": "function"
    },
    {
      "inputs": [],
      "name": "winner",
      "outputs": [
        {
          "internalType": "string",
          "name": "",
          "type": "string"
        }
      ],
      "stateMutability": "view",
      "type": "function"
    },
    {
      "inputs": [
        {
          "internalType": "string",
          "name": "_name",
          "type": "string"
        }
      ],
      "name": "addPlayer",
      "outputs": [],
      "stateMutability": "nonpayable",
      "type": "function"
    },
    {
      "inputs": [
        {
          "internalType": "uint256",
          "name": "_index",
          "type": "uint256"
        }
      ],
      "name": "getPlayerScore",
      "outputs": [
        {
          "internalType": "string",
          "name": "name",
          "type": "string"
        },
        {
          "internalType": "uint256",
          "name": "score",
          "type": "uint256"
        }
      ],
      "stateMutability": "view",
      "type": "function"
    },
    {
      "inputs": [],
      "name": "getTotalPlayers",
      "outputs": [
        {
          "internalType": "uint256",
          "name": "",
          "type": "uint256"
        }
      ],
      "stateMutability": "view",
      "type": "function"
    },
    {
      "inputs": [],
      "name": "getAllPlayers",
      "outputs": [
        {
          "components": [
            {
              "internalType": "string",
              "name": "name",
              "type": "string"
            },
            {
              "internalType": "uint256",
              "name": "score",
              "type": "uint256"
            }
          ],
          "internalType": "struct TournamentScore.Player[]",
          "name": "",
          "type": "tuple[]"
        }
      ],
      "stateMutability": "view",
      "type": "function"
    },
    {
      "inputs": [
        {
          "internalType": "string[]",
          "name": "playerNames",
          "type": "string[]"
        },
        {
          "internalType": "uint256[]",
          "name": "scores",
          "type": "uint256[]"
        }
      ],
      "name": "finalizeTournament",
      "outputs": [],
      "stateMutability": "nonpayable",
      "type": "function"
    },
    {
      "inputs": [
        {
          "internalType": "string",
          "name": "_winner",
          "type": "string"
        }
      ],
      "name": "enregistrerGagnant",
      "outputs": [],
      "stateMutability": "nonpayable",
      "type": "function"
    },
    {
      "inputs": [],
      "name": "getWinner",
      "outputs": [
        {
          "internalType": "string",
          "name": "",
          "type": "string"
        }
      ],
      "stateMutability": "view",
      "type": "function"
    },
    {
      "inputs": [
        {
          "internalType": "string",
          "name": "playerName",
          "type": "string"
        }
      ],
      "name": "getTournamentWins",
      "outputs": [
        {
          "internalType": "uint256",
          "name": "",
          "type": "uint256"
        }
      ],
      "stateMutability": "view",
      "type": "function"
    }
  ],
  "bytecode": "0x608060405234801561000f575f80fd5b5061184a8061001d5f395ff3fe608060405234801561000f575f80fd5b50600436106100a7575f3560e01c80639d18be881161006f5780639d18be8814610164578063dfbf53ae14610180578063efa1c4821461019e578063f4c13589146101bc578063f71d96cb146101ec578063f77e8b831461021d576100a7565b80631bf59f85146100ab57806342ac201d146100db5780634529cae7146100f75780638e7ea5b21461011557806390fdacf414610133575b5f80fd5b6100c560048036038101906100c09190610c09565b610239565b6040516100d29190610c68565b60405180910390f35b6100f560048036038101906100f09190610e4d565b610260565b005b6100ff610503565b60405161010c9190610c68565b60405180910390f35b61011d61050e565b60405161012a9190610f3d565b60405180910390f35b61014d60048036038101906101489190610f5d565b61059e565b60405161015b929190610f88565b60405180910390f35b61017e60048036038101906101799190610c09565b6106c0565b005b610188610780565b6040516101959190610f3d565b60405180910390f35b6101a661080c565b6040516101b39190611102565b60405180910390f35b6101d660048036038101906101d19190610c09565b610900565b6040516101e39190610c68565b60405180910390f35b61020660048036038101906102019190610f5d565b61092d565b604051610214929190610f88565b60405180910390f35b61023760048036038101906102329190610c09565b6109e1565b005b5f60028260405161024a919061115c565b9081526020016040518091039020549050919050565b80518251146102a4576040517f08c379a000000000000000000000000000000000000000000000000000000000815260040161029b906111e2565b60405180910390fd5b5f5b82518110156104fe575f8382815181106102c3576102c2611200565b5b6020026020010151511161030c576040517f08c379a000000000000000000000000000000000000000000000000000000000815260040161030390611277565b60405180910390fd5b5f805b5f805490508110156103e65784838151811061032e5761032d611200565b5b6020026020010151805190602001205f82815481106103505761034f611200565b5b905f5260205f2090600202015f0160405161036b919061138e565b6040518091039020036103d35783838151811061038b5761038a611200565b5b60200260200101515f82815481106103a6576103a5611200565b5b905f5260205f2090600202016001015f8282546103c391906113d1565b92505081905550600191506103e6565b80806103de90611404565b91505061030f565b50806104ea575f604051806040016040528086858151811061040b5761040a611200565b5b6020026020010151815260200185858151811061042b5761042a611200565b5b6020026020010151815250908060018154018082558091505060019003905f5260205f2090600202015f909190919091505f820151815f01908161046f91906115e8565b506020820151816001015550507f04e8c7d1d6842c2dd64514d16ab713b7099bf0327e3c6361714d58f04a32aee68483815181106104b0576104af611200565b5b60200260200101518484815181106104cb576104ca611200565b5b60200260200101516040516104e1929190610f88565b60405180910390a15b5080806104f690611404565b9150506102a6565b505050565b5f8080549050905090565b60606001805461051d906112c2565b80601f0160208091040260200160405190810160405280929190818152602001828054610549906112c2565b80156105945780601f1061056b57610100808354040283529160200191610594565b820191905f5260205f20905b81548152906001019060200180831161057757829003601f168201915b5050505050905090565b60605f808054905083106105e7576040517f08c379a00000000000000000000000000000000000000000000000000000000081526004016105de90611701565b60405180910390fd5b5f8084815481106105fb576105fa611200565b5b905f5260205f2090600202016040518060400160405290815f82018054610621906112c2565b80601f016020809104026020016040519081016040528092919081815260200182805461064d906112c2565b80156106985780601f1061066f57610100808354040283529160200191610698565b820191905f5260205f20905b81548152906001019060200180831161067b57829003601f168201915b505050505081526020016001820154815250509050805f015181602001519250925050915091565b5f815111610703576040517f08c379a00000000000000000000000000000000000000000000000000000000081526004016106fa9061178f565b60405180910390fd5b806001908161071291906115e8565b50600281604051610723919061115c565b90815260200160405180910390205f81548092919061074190611404565b91905055507f1bc38f28153fb0b82156e834ea8f6a85a5b6568e1df408f80d3d072fb2c9f3fe816040516107759190610f3d565b60405180910390a150565b6001805461078d906112c2565b80601f01602080910402602001604051908101604052809291908181526020018280546107b9906112c2565b80156108045780601f106107db57610100808354040283529160200191610804565b820191905f5260205f20905b8154815290600101906020018083116107e757829003601f168201915b505050505081565b60605f805480602002602001604051908101604052809291908181526020015f905b828210156108f7578382905f5260205f2090600202016040518060400160405290815f8201805461085e906112c2565b80601f016020809104026020016040519081016040528092919081815260200182805461088a906112c2565b80156108d55780601f106108ac576101008083540402835291602001916108d5565b820191905f5260205f20905b8154815290600101906020018083116108b857829003601f168201915b505050505081526020016001820154815250508152602001906001019061082e565b50505050905090565b6002818051602081018201805184825260208301602085012081835280955050505050505f915090505481565b5f818154811061093b575f80fd5b905f5260205f2090600202015f91509050805f01805461095a906112c2565b80601f0160208091040260200160405190810160405280929190818152602001828054610986906112c2565b80156109d15780601f106109a8576101008083540402835291602001916109d1565b820191905f5260205f20905b8154815290600101906020018083116109b457829003601f168201915b5050505050908060010154905082565b5f815111610a24576040517f08c379a0000000000000000000000000000000000000000000000000000000008152600401610a1b90611277565b60405180910390fd5b5f60405180604001604052808381526020015f815250908060018154018082558091505060019003905f5260205f2090600202015f909190919091505f820151815f019081610a7391906115e8565b506020820151816001015550507f04e8c7d1d6842c2dd64514d16ab713b7099bf0327e3c6361714d58f04a32aee6815f604051610ab19291906117e6565b60405180910390a150565b5f604051905090565b5f80fd5b5f80fd5b5f80fd5b5f80fd5b5f601f19601f8301169050919050565b7f4e487b71000000000000000000000000000000000000000000000000000000005f52604160045260245ffd5b610b1b82610ad5565b810181811067ffffffffffffffff82111715610b3a57610b39610ae5565b5b80604052505050565b5f610b4c610abc565b9050610b588282610b12565b919050565b5f67ffffffffffffffff821115610b7757610b76610ae5565b5b610b8082610ad5565b9050602081019050919050565b828183375f83830152505050565b5f610bad610ba884610b5d565b610b43565b905082815260208101848484011115610bc957610bc8610ad1565b5b610bd4848285610b8d565b509392505050565b5f82601f830112610bf057610bef610acd565b5b8135610c00848260208601610b9b565b91505092915050565b5f60208284031215610c1e57610c1d610ac5565b5b5f82013567ffffffffffffffff811115610c3b57610c3a610ac9565b5b610c4784828501610bdc565b91505092915050565b5f819050919050565b610c6281610c50565b82525050565b5f602082019050610c7b5f830184610c59565b92915050565b5f67ffffffffffffffff821115610c9b57610c9a610ae5565b5b602082029050602081019050919050565b5f80fd5b5f610cc2610cbd84610c81565b610b43565b90508083825260208201905060208402830185811115610ce557610ce4610cac565b5b835b81811015610d2c57803567ffffffffffffffff811115610d0a57610d09610acd565b5b808601610d178982610bdc565b85526020850194505050602081019050610ce7565b5050509392505050565b5f82601f830112610d4a57610d49610acd565b5b8135610d5a848260208601610cb0565b91505092915050565b5f67ffffffffffffffff821115610d7d57610d7c610ae5565b5b602082029050602081019050919050565b610d9781610c50565b8114610da1575f80fd5b50565b5f81359050610db281610d8e565b92915050565b5f610dca610dc584610d63565b610b43565b90508083825260208201905060208402830185811115610ded57610dec610cac565b5b835b81811015610e165780610e028882610da4565b845260208401935050602081019050610def565b5050509392505050565b5f82601f830112610e3457610e33610acd565b5b8135610e44848260208601610db8565b91505092915050565b5f8060408385031215610e6357610e62610ac5565b5b5f83013567ffffffffffffffff811115610e8057610e7f610ac9565b5b610e8c85828601610d36565b925050602083013567ffffffffffffffff811115610ead57610eac610ac9565b5b610eb985828601610e20565b9150509250929050565b5f81519050919050565b5f82825260208201905092915050565b5f5b83811015610efa578082015181840152602081019050610edf565b5f8484015250505050565b5f610f0f82610ec3565b610f198185610ecd565b9350610f29818560208601610edd565b610f3281610ad5565b840191505092915050565b5f6020820190508181035f830152610f558184610f05565b905092915050565b5f60208284031215610f7257610f71610ac5565b5b5f610f7f84828501610da4565b91505092915050565b5f6040820190508181035f830152610fa08185610f05565b9050610faf6020830184610c59565b9392505050565b5f81519050919050565b5f82825260208201905092915050565b5f819050602082019050919050565b5f82825260208201905092915050565b5f610ff982610ec3565b6110038185610fdf565b9350611013818560208601610edd565b61101c81610ad5565b840191505092915050565b61103081610c50565b82525050565b5f604083015f8301518482035f8601526110508282610fef565b91505060208301516110656020860182611027565b508091505092915050565b5f61107b8383611036565b905092915050565b5f602082019050919050565b5f61109982610fb6565b6110a38185610fc0565b9350836020820285016110b585610fd0565b805f5b858110156110f057848403895281516110d18582611070565b94506110dc83611083565b925060208a019950506001810190506110b8565b50829750879550505050505092915050565b5f6020820190508181035f83015261111a818461108f565b905092915050565b5f81905092915050565b5f61113682610ec3565b6111408185611122565b9350611150818560208601610edd565b80840191505092915050565b5f611167828461112c565b915081905092915050565b7f4c6573207461626c6561757820646f6976656e742061766f6972206c61206d655f8201527f6d65206c6f6e6775657572000000000000000000000000000000000000000000602082015250565b5f6111cc602b83610ecd565b91506111d782611172565b604082019050919050565b5f6020820190508181035f8301526111f9816111c0565b9050919050565b7f4e487b71000000000000000000000000000000000000000000000000000000005f52603260045260245ffd5b7f4c65206e6f6d206e6520706575742070617320657472652076696465000000005f82015250565b5f611261601c83610ecd565b915061126c8261122d565b602082019050919050565b5f6020820190508181035f83015261128e81611255565b9050919050565b7f4e487b71000000000000000000000000000000000000000000000000000000005f52602260045260245ffd5b5f60028204905060018216806112d957607f821691505b6020821081036112ec576112eb611295565b5b50919050565b5f81905092915050565b5f819050815f5260205f209050919050565b5f815461131a816112c2565b61132481866112f2565b9450600182165f811461133e576001811461135357611385565b60ff1983168652811515820286019350611385565b61135c856112fc565b5f5b8381101561137d5781548189015260018201915060208101905061135e565b838801955050505b50505092915050565b5f611399828461130e565b915081905092915050565b7f4e487b71000000000000000000000000000000000000000000000000000000005f52601160045260245ffd5b5f6113db82610c50565b91506113e683610c50565b92508282019050808211156113fe576113fd6113a4565b5b92915050565b5f61140e82610c50565b91507fffffffffffffffffffffffffffffffffffffffffffffffffffffffffffffffff82036114405761143f6113a4565b5b600182019050919050565b5f819050815f5260205f209050919050565b5f6020601f8301049050919050565b5f82821b905092915050565b5f600883026114a77fffffffffffffffffffffffffffffffffffffffffffffffffffffffffffffffff8261146c565b6114b1868361146c565b95508019841693508086168417925050509392505050565b5f819050919050565b5f6114ec6114e76114e284610c50565b6114c9565b610c50565b9050919050565b5f819050919050565b611505836114d2565b611519611511826114f3565b848454611478565b825550505050565b5f90565b61152d611521565b6115388184846114fc565b505050565b5b8181101561155b576115505f82611525565b60018101905061153e565b5050565b601f8211156115a0576115718161144b565b61157a8461145d565b81016020851015611589578190505b61159d6115958561145d565b83018261153d565b50505b505050565b5f82821c905092915050565b5f6115c05f19846008026115a5565b1980831691505092915050565b5f6115d883836115b1565b9150826002028217905092915050565b6115f182610ec3565b67ffffffffffffffff81111561160a57611609610ae5565b5b61161482546112c2565b61161f82828561155f565b5f60209050601f831160018114611650575f841561163e578287015190505b61164885826115cd565b8655506116af565b601f19841661165e8661144b565b5f5b8281101561168557848901518255600182019150602085019450602081019050611660565b868310156116a2578489015161169e601f8916826115b1565b8355505b6001600288020188555050505b505050505050565b7f496e64657820686f7273206c696d6974657300000000000000000000000000005f82015250565b5f6116eb601283610ecd565b91506116f6826116b7565b602082019050919050565b5f6020820190508181035f830152611718816116df565b9050919050565b7f4c65206e6f6d206475206761676e616e74206e652070657574207061732065745f8201527f7265207669646500000000000000000000000000000000000000000000000000602082015250565b5f611779602783610ecd565b91506117848261171f565b604082019050919050565b5f6020820190508181035f8301526117a68161176d565b9050919050565b5f819050919050565b5f6117d06117cb6117c6846117ad565b6114c9565b610c50565b9050919050565b6117e0816117b6565b82525050565b5f6040820190508181035f8301526117fe8185610f05565b905061180d60208301846117d7565b939250505056fea26469706673582212209bd1b3e2d5ea1ecd5875a46143867cdb13ef49557fad1fa70fa78ddc482a57b564736f6c63430008150033",
  "immutableReferences": {},
  "source": "// SPDX-License-Identifier: MIT\npragma solidity ^0.8.0;\n\ncontract TournamentScore {\n    struct Player {\n        string name;\n        uint score;\n    }\n\n    Player[] public players;\n    string public winner;  // Nouvelle variable pour stocker le gagnant du tournoi\n    mapping(string => uint) public tournamentWins;  // Nouveau mapping pour suivre les tournois gagns\n\n    // Ajouter un vnement pour suivre les ajouts de joueurs et du gagnant\n    event PlayerAdded(string name, uint score);\n    event TournamentWinner(string winner);  // Nouvel vnement pour le gagnant\n\n    function addPlayer(string memory _name) public {\n        require(bytes(_name).length > 0, \"Le nom ne peut pas etre vide\");\n        players.push(Player(_name, 0));\n        emit PlayerAdded(_name, 0); // Emettre un vnement aprs l'ajout d'un joueur\n    }\n\n    function getPlayerScore(uint _index) public view returns (string memory name, uint score) {\n        require(_index < players.length, \"Index hors limites\");\n        Player memory player = players[_index];\n        return (player.name, player.score);\n    }\n\n    function getTotalPlayers() public view returns (uint) {\n        return players.length;\n    }\n\n    function getAllPlayers() public view returns (Player[] memory) {\n        return players;\n    }\n\n    // Fonction pour finaliser le tournoi et mettre  jour les scores des joueurs\n    function finalizeTournament(string[] memory playerNames, uint[] memory scores) public {\n        require(playerNames.length == scores.length, \"Les tableaux doivent avoir la meme longueur\");\n        for (uint i = 0; i < playerNames.length; i++) {\n            require(bytes(playerNames[i]).length > 0, \"Le nom ne peut pas etre vide\");\n\n            // Rechercher le joueur par son nom et mettre  jour son score cumulatif\n            bool found = false;\n            for (uint j = 0; j < players.length; j++) {\n                if (keccak256(bytes(players[j].name)) == keccak256(bytes(playerNames[i]))) {\n                    players[j].score += scores[i];  // Ajouter le nouveau score  l'ancien\n                    found = true;\n                    break;\n                }\n            }\n\n            // Si le joueur n'est pas trouv, l'ajouter\n            if (!found) {\n                players.push(Player(playerNames[i], scores[i]));\n                emit PlayerAdded(playerNames[i], scores[i]);\n            }\n        }\n    }\n\n    // Fonction pour enregistrer le gagnant du tournoi\n    function enregistrerGagnant(string memory _winner) public {\n        require(bytes(_winner).length > 0, \"Le nom du gagnant ne peut pas etre vide\");\n        winner = _winner;  // Stocker le nom du gagnant\n        tournamentWins[_winner]++;  // Incrmenter le nombre de tournois gagns par le joueur\n        emit TournamentWinner(_winner);  // Emettre un vnement pour le gagnant\n    }\n\n    // Rcuprer le gagnant du tournoi\n    function getWinner() public view returns (string memory) {\n        return winner;\n    }\n\n    // Rcuprer le nombre de tournois gagns par un joueur\n    function getTournamentWins(string memory playerName) public view returns (uint) {\n        return tournamentWins[playerName];\n    }\n}\n",
  "sourcePath": "/usr/src/app/contracts/TournamentScore.sol",
  "compiler": {
    "name": "solc",
    "version": "0.8.21+commit.d9974bed.Emscripten.clang"
  },
  "schemaVersion": "3.4.16",
  "updatedAt": "2024-10-31T14:01:12.980Z",
  "devdoc": {
    "kind": "dev",
    "methods": {},
    "version": 1
  },
  "userdoc": {
    "kind": "user",
    "methods": {},
    "version": 1
  }
}